:020000040800F2
:1000000050A1002051010008271E00080D1C000807
:10001000251E000889020008BB3600080000000009
:10002000000000000000000000000000032C000899
:10003000F50200080000000055280008052C000803
:100040006B0100086B0100086B0100086B010008E0
:100050006B0100086B0100086B0100086B010008D0
:100060006B0100086B0100086B0100086B010008C0
:100070006B0100086B0100086B0100086B010008B0
:100080006B0100086B0100086B0100086B010008A0
:100090006B0100086B0100086B0100086B01000890
:1000A0006B0100086B0100086B0100086B01000880
:1000B0006B0100086B0100086B0100086B01000870
:1000C0006B0100086B0100086B0100086B01000860
:1000D0006B0100086B0100086B0100086B01000850
:1000E0006B0100086B0100086B0100086B01000840
:1000F0006B0100086B0100086B0100086B01000830
:100100006B0100086B0100086B0100086B0100081F
:100110006B0100086B0100086B0100086B0100080F
:100120006B0100086B0100086B0100086B010008FF
:100130006B0100086B0100086B010008DFF80CD0B0
:1001400000F090F8004800471D39000850A1002039
:100150000648804706480047FEE7FEE7FEE7FEE761
:10016000FEE7FEE7FEE7FEE7FEE7FEE7592D0008A3
:100170003D0100082DE9F05F0546002092469B46B0
:1001800088460646814640241BE0284641464746AD
:10019000224600F057F853465A46C01A914110D3F0
:1001A00011461846224600F03EF82D1A67EB01086A
:1001B0004F4622460120002100F035F817EB0009D8
:1001C0004E41201EA4F10104DFDC484631462A4698
:1001D0004346BDE8F09FD2B201E000F8012B491E72
:1001E000FBD270470022F6E710B513460A460446D4
:1001F0001946FFF7F0FF204610BD30B50B4601460B
:1002000000202022012409E021FA02F59D4205D3B5
:1002100003FA02F5491B04FA02F52844151EA2F15F
:100220000102F1DC30BD202A04DB203A00FA02F1A1
:10023000002070479140C2F1200320FA03F31943D4
:1002400090407047202A04DB203A21FA02F0002176
:10025000704721FA02F3D040C2F1200291400843D6
:1002600019467047064C074D06E0E06840F0010370
:1002700094E8070098471034AC42F6D3FFF762FFCA
:10028000A4520108C4520108FEE710B54FF0904493
:1002900000220421204600F080FC0022102120468C
:1002A00000F07BFC20460022BDE81040022100F057
:1002B00074BC10B54FF0904400220421204600F099
:1002C0006CFC00221021204600F067FC2046012231
:1002D000BDE81040022100F060BC000001B54FF401
:1002E0007A7301226946024801F08CFA08BD0000C9
:1002F0004400002070472DE9F04150274FF4C078AA
:10030000102000F05BF9002600250024332000F0C7
:100310006DF9641CE4B2042CF8D36D1CADB2BD427F
:10032000F3D3761CB6B24645EED3BDE8F04100F0FB
:1003300083B92DE9F35F4FF0500A4FF4C07B1020D2
:1003400000F03CF90024002504FB0AF80099294438
:1003500018F801700199294418F80160002130064D
:1003600001D4042004E0380601D4002000E003207A
:100370007A067306491C0001120E1B0E01F0FF09DC
:10038000190602D440F0040003E0110601D540F044
:10039000030051060F0E59060E0E00F027F909F161
:1003A0000100C1B20829DAD36D1C5545CED3641CB7
:1003B0005C45C8D3BDE8FC5F00F03EB92DE9F34FC2
:1003C00081B04FF4C07000904FF05009102000F041
:1003D000F5F84FF00008002508FB09FA0199002004
:1003E00029441AF80170029929441AF8016031066B
:1003F00001D4042104E0390601D4002100E00321E6
:100400000C0179060A0E7106401C090E00F0FF0B64
:10041000080602D444F0040403E0100601D544F0B9
:1004200003045006070E4806060E204600F0DEF8CC
:100430000BF10100C0B20828D9D36D1C4D45CDD3B6
:10044000009908F10108B8EB510FC4D300270CE064
:1004500000260025204600F0C9F86D1CEDB2042DE1
:10046000F8D3761C4E45F4D37F1C0098B7EB500FA1
:10047000EED3BDE8FE4F00F0DFB810B54FF090446A
:1004800001220221204600F088FBC82000F0B4FAC7
:1004900000220221204600F080FB0A2000F0ACFA86
:1004A00001220221204600F078FBC82000F0A4FAC7
:1004B000012000F083F8372000F098F8002000F0C9
:1004C00095F8002000F07AF8CF2000F08FF808208F
:1004D00000F08CF8302000F071F83A2000F086F837
:1004E000822000F06BF8282000F080F8062000F051
:1004F00065F8C72000F07AF8CC2000F077F81520D6
:1005000000F074F8502000F059F8772000F06EF8F1
:10051000602000F053F8222000F068F8652000F019
:100520004DF8002000F062F8612000F047F802204A
:1005300000F05CF8802000F059F8012000F056F837
:10054000802000F053F8E52000F038F8BDE81040B6
:10055000032000F04BB8000010B50AA003F0AEF87D
:100560004FF09044712000F029F80821204600F057
:100570000FFB40F30000401CF4D1BDE8104007A081
:1005800003F09CB844656275673A20652D50617030
:10059000657220627573790D0A000000446562750A
:1005A000673A20652D5061706572206275737920FD
:1005B00072656C656173650D0A00000070B50546D3
:1005C0004FF0904400220421204600F0E6FA002279
:1005D0001021204600F0E1FA2846FFF77FFE204672
:1005E000BDE870400122102100F0D7BA70B5054671
:1005F0004FF0904401220421204600F0CEFA002260
:100600001021204600F0C9FA2846FFF767FE204671
:10061000BDE870400122102100F0BFBA10B50220E1
:10062000FFF7CCFFFFF798FF0720FFF7C7FFBDE8F4
:100630001040A520FFF7DABF10B50420FFF7BEFF7A
:10064000FFF78AFF1220FFF7B9FF642000F0D4F90A
:10065000BDE81040FFF780BF2DE9FE438BA003F0FB
:100660002DF8FFF726FE8FA003F028F8FFF705FF0F
:10067000FFF741FE4FF4FA7000F0BEF94FF47054EA
:10068000204603F059F95FEA00094FF0FF357DD0AD
:10069000204603F051F9070079D089A003F00EF845
:1006A000FF264FF420740023C022214648460096BE
:1006B00002F046F80023C02221463846009602F098
:1006C0003FF8484602F058F8FF2001F0BDFB3846DD
:1006D00002F052F8FF2001F0B7FB82A002F0EEFF1B
:1006E00086498748FFF725FE4FF4FA68404600F038
:1006F00083F9484602F040F8FF2001F0A5FB0124F1
:100700002346002250210A20009401F02FFE0223EC
:1007100000225A210A20009401F028FE032300221F
:1007200064210A20009401F021FE032300226E219F
:100730000A20009401F01AFE0025CDE9005446225B
:10074000782311461420029501F020FDCDE90054D4
:100750004621782314220846029501F017FDCDE9C1
:1007600000544622782311461420029501F070FEB1
:10077000CDE900547823822246215020029401F0D2
:1007800067FE00215F4B60A20A2001E076E077E07F
:10079000CDE9005601F096FFCDE900655D4B5EA204
:1007A0001421822001F0C4FECDE90065554B5D4A5D
:1007B00032210A2001F070FD384601F0DDFFFF20F4
:1007C00001F042FB002314225F21A020CDE9004567
:1007D00001F0CEFB0094002314225F21D22001946B
:1007E00001F0C6FBCDE900545F237D221946552058
:1007F000029401F0CBFCCDE90054692273234B2114
:100800001046029401F0C2FCCDE90056464B47A2C7
:100810000021822001F08CFECDE90065454B46A207
:1008200014210A2001F04EFFCDE90056414B454A04
:1008300021210A2001F030FD43A002F03FFF39469C
:100840004846FFF7BBFD404600F0D6F842A002F054
:1008500035FFFFF750FD43A002F030FFFFF7DEFE4B
:10086000484603F033F8384603F030F841A002F070
:1008700025FFFFF70AFD0020BDE8FE834AA000E047
:1008800053A002F01BFF2846F6E700004550445FE6
:1008900037494E3542435F746573742044656D6F0C
:1008A0000D0A0000652D506170657220496E6974F3
:1008B00020616E6420436C6561722E2E2E0D0A003D
:1008C0004E6577496D6167653A426C61636B496D4E
:1008D00061676520616E64205259496D6167650DDD
:1008E0000A00000073686F7720696D616765206694
:1008F0006F722061727261790D0A00001CDA0008C3
:100900001C620008240000207761766573686172BC
:10091000650000002C000020CEA2D1A9B5E7D7D3F6
:1009200000000000B168DE3A18000020C4E3BAC33A
:10093000616263001000002068656C6C6F20776F47
:10094000726C640015CD5B074550445F4469737059
:100950006C61790D0A000000436C6561722E2E2EC9
:100960000D0A0000476F746F20536C6565702E2E62
:100970002E0D0A00636C6F73652035562C204D6F69
:1009800064756C6520656E74657273203020706FBD
:1009900077657220636F6E73756D7074696F6E200A
:1009A0002E2E2E0D0A0000004661696C65642074CD
:1009B0006F206170706C7920666F7220626C616369
:1009C0006B206D656D6F72792E2E2E0D0A00000062
:1009D0004661696C656420746F206170706C792069
:1009E000666F7220726564206D656D6F72792E2E50
:1009F0002E0D0A00FEE7000070B5044600F0D2F8A4
:100A00000546601C02D004484068044400F0CAF85F
:100A1000401BA042FAD370BD000000202DE9F04F2A
:100A2000DFF854B100234FF0010C4FF0030A4FF0F0
:100A30000F090BF1040E97E00CFA03F632407DD05B
:100A40004C68022C01D0122C0ED1DC0800EB84087B
:100A5000D8F820405D07EF0E09FA07F5AC430D69A1
:100A6000BD402543C8F8205007685D0091F8048018
:100A70000AFA05F408F00308A74308FA05F848EA5B
:100A80000708C0F800804F68012F05D0022F03D05F
:100A9000112F01D0122F10D1D0F80880CF6828EA8A
:100AA0000408AF4047EA080787604768B7430E79F4
:100AB000C6F300169E403E434660C668A6438C6857
:100AC000AC403443C4604C68E4004CD52B4C23F05C
:100AD00003052E19B4689D072F0F09FA07F5AC43DB
:100AE000B0F1904F04D0264DA84203D1012511E06A
:100AF00000250FE0234DA84201D102250AE0224D36
:100B0000A84201D1032505E0204DA84201D10425CA
:100B100000E00725BD402543B560DBF800405D4699
:100B20004E689443F60300D514432C60DEF8004071
:100B300075464E689443B60302D500E013E01443B3
:100B40002C600D4D803D2C684E689443F60200D514
:100B500014432C60084D7C3D2C684E689443B602CB
:100B600000D514432C605B1C0A6832FA03F47FF44E
:100B700063AFBDE8F08F000080080058000001401E
:100B80000004004800080048000C0048001000481D
:100B90000069084000D0012070470AB181617047A8
:100BA00081627047014880687047000000000020A3
:100BB000014800687047000000000020024881687A
:100BC000426811448160704700000020094810B558
:100BD0000168002441F480710160032000F04EF8A8
:100BE000002000F009F808B1012401E000F024F829
:100BF000204610BD0040005870B50E4E054600243A
:100C00007068A0B100F04EFA71684FF47A72B2FBCE
:100C1000F1F1B0FBF1F000F0B4FE40B9102D06D2B6
:100C200000222946501E00F009F8356000E001243A
:100C3000204670BD0000002070470000F0B40E4B4D
:100C40001B680C46C3F30223C3F10705042D00D92A
:100C50000425191D072901D2002300E0DB1E01260F
:100C600006FA05F1491E214099409E40761E164025
:100C70003143F0BC01F0D8B80CED00E0064900F0BB
:100C8000070208684FF6FF03184040EA0220034AB3
:100C900010430860704700000CED00E00000FA050A
:100CA0000248006800F4C06070470000000400586B
:100CB0000248016841F480710160704700040058E7
:100CC0002DE9F0410446002700783E4640064FF0EB
:100CD000B04517D5206B78B1B0F5800F07D0B0F5CF
:100CE000000F3BD0B0F5400F38D0012709E0E8688D
:100CF00040F48030E86031E0201D01F0ACFD0700D9
:100D00002CD03E462088000546D5D5F8900000F44A
:100D10004076206CB0423ED0FFF7CAFF3EB3D5F814
:100D20009000D5F8901041F48031C5F89010D5F8B6
:100D3000901021F48031C5F89010216C20F440709F
:100D40000843C5F89000D5F8900010F0010F22D0AC
:100D5000FFF728FF064641F2883818E0206BD5F8E7
:100D6000881021F440010143C5F88810CAE7206CBF
:100D7000D5F8901021F440710143C5F890100AE0B5
:100D8000FFF710FF811B414501D9032703E000F065
:100D900059FF0128F4D13E462078C00707D0A0694A
:100DA000D5F8881021F003010143C5F88810207898
:100DB000800707D5E069D5F8881021F44061014328
:100DC000C5F888102078C00602D5A06A00F097FF09
:100DD0002078800602D5E06A00F091FF2078400775
:100DE00002D5206A00F07CFF2078000702D5606AF7
:100DF00000F076FF2088C00518D5606BD5F8881004
:100E000021F040610143C5F88810606BB0F1006FBC
:100E100003D1E86840F08070E860606BB0F1806FEB
:100E200004D1201D01F051FD00B106462088800547
:100E300007D5A06BD5F8881021F040410143C5F8D3
:100E400088102088400518D5E06BD5F8881021F06F
:100E500040510143C5F88810E06BB0F1005F03D149
:100E6000E86840F48030E860E06BB0F1805F04D166
:100E7000201D01F064FD00B106462088C00407D59E
:100E8000606CD5F8941021F440410143C5F89410EA
:100E9000208880040BD5E06C696A21F030010143A1
:100EA0006962A06C696A21F00301014369623046FE
:100EB000BDE8F0812DE9F0410F46040077D0784E6F
:100EC000306800F00700B84212D2306820F0070006
:100ED00038433060FFF766FE054604E0FFF762FE28
:100EE000401B02287DD8306800F00700B842F5D1D9
:100EF00020784FF0B045800715D5A068A96821F08B
:100F0000F0010143A960FFF74DFE804606E000BFF7
:100F1000FFF748FEA0EB0800022862D8A868C0F3DB
:100F200000400028F4D02078800617D56069D5F8F5
:100F3000081121F0F0010143C5F80811FFF732FE56
:100F4000804605E0FFF72EFEA0EB0800022848D8F7
:100F5000D5F80801C0F340400028F3D020784006BF
:100F600018D5A069D5F8081121F00F0141EA101039
:100F7000C5F80801FFF716FE804605E0FFF712FEF0
:100F8000A0EB080002287CD8D5F80801C0F3004087
:100F90000028F3D02078400715D5E068A96821F42F
:100FA000E0610143A960FFF7FDFD804606E045E0F2
:100FB000FFF7F8FDA0EB0800022862D8A868C0F38C
:100FC00040400028F4D02078000716D52069A96891
:100FD00021F4605141EAC001A960FFF7E3FD8046BA
:100FE00006E04EE0FFF7DEFDA0EB0800022848D83F
:100FF000A868C0F380400028F4D02078C0072CD027
:101000006068022805D0032806D0A0B100F00BFECE
:1010100004E000F002FE01E000F05CFE70B16068E8
:10102000A96821F003010143A960FFF7BBFD054654
:1010300041F288380BE000F01CFEEFE70120BDE82C
:10104000F08100BFFFF7AEFD411B414519D800F00C
:10105000DEFD6168B0EB810FF4D1306800F007006D
:10106000B84215D9306820F0070038433060FFF7E8
:1010700099FD044607E000BFFFF794FD001B02281E
:1010800001D90320DBE7306800F00700B842F3D154
:1010900001F014FEFFF78CFDBDE8F041FFF7ACBD99
:1010A0000040005810B500F033F84FF0B0418968A7
:1010B000044A01F0F00102EB91010968B0FBF1F084
:1010C00010BD0000D039000810B5FFF7EBFF4FF05E
:1010D000B0418968044A01F4E06102EB911109789A
:1010E00001F01F01C84010BD503A000810B5FFF7CD
:1010F000D9FF4FF0B0418968044A01F4605102EB16
:101100005121097801F01F01C84010BD503A000874
:101110002DE9F04100F07BFD224F48B3224C04281A
:101120002ED0A6104FEA64084FF0B045082829D009
:1011300000F0CAFD022808D003282BD000F090FD53
:1011400000F0F00007EB90000468E868E968C0F37D
:101150000620604301F07002012101EB1212B0FB86
:10116000F2F2E86801EB5070B2FBF0F0BDE8F081FC
:1011700000F076FD00F0F00007EB90000068F5E766
:101180002046F3E72868C0F3005008B13046EDE789
:101190004046EBE72868C0F3005008B13446D4E776
:1011A0004446D2E7103A00080024F4002DE9F0414B
:1011B00004007DD020784FF0B04580065FD500F068
:1011C00026FD064600F080FD76B10C2E01D10128E7
:1011D0000AD0E0690028286840D040F0010028606B
:1011E000FFF7E0FC06462EE000F043FD10B1E06999
:1011F0000028DED000F034FD0146606A81420AD248
:1012000001F020FC002853D1606A00F041FD206A03
:1012100000F035FD09E000F03BFD206A00F02FFDF5
:10122000606A01F00FFC0028EDD101F047FD0020BD
:10123000FFF7E2FC0028E6D121E000BFFFF7B2FC97
:10124000801B02287DD800F014FD0028F6D0606ACB
:1012500000F01EFD206A00F012FD10E020F00100F9
:101260002860FFF79FFC064605E000BFFFF79AFCE9
:10127000801B0228E6D800F0FCFC0028F6D120787C
:10128000C00748D000F0C3FC064600F01DFD082E44
:101290001AD00C2E01D1032816D06068B0F5803F1B
:1012A00019D0B0F5A02F286819D020F4803000E0C4
:1012B00018E22860286820F4802028606068E8B17F
:1012C000FFF770FC064614E000F0A7FC18B3606856
:1012D00000288ED01FE0286840F48030EDE740F40D
:1012E00080202860F7E700BFFFF75CFC801B6428C4
:1012F000A8D800F092FC0028F6D00CE0FFF752FCD2
:10130000064604E0FFF74EFC801B64289AD800F0E4
:1013100084FC0028F6D1207880073CD500F077FCCB
:10132000064600F0D1FC042E10D00C2E01D102286C
:101330000CD0E068002828681CD040F48070286039
:1013400000E000E1FFF72EFC06460EE000F06BFC2B
:1013500010B1E0680028BCD0206900F06AFC1AE0F7
:10136000FFF720FC801B022884D800F05CFC0028DA
:10137000F6D0F1E720F480702860FFF713FC0646F2
:1013800005E000BFFFF70EFC801B0228B0D800F07C
:101390004AFC0028F6D12068010701D4C1064ED5C9
:1013A0006169E1B3C0064BD500F053FC98B9D5F89C
:1013B000940040F00100C5F89400FFF7F3FB0646E7
:1013C00005E000BFFFF7EEFB801B022890D800F07D
:1013D00040FC0028F6D0D5F8940040F00400C5F891
:1013E0009400FFF7DFFB064605E000BFFFF7DAFBDE
:1013F000801B03288AD8D5F89400C0F3C0000028C9
:10140000F4D0A069D5F8941021F4706141EA00206D
:10141000C5F89400D5F8940020F0010000E035E014
:10142000C5F89400FFF7BEFB064604E0FFF7BAFBE1
:10143000801B022898D800F00CFC0028F6D14EE062
:10144000D5F8940040F00100C5F89400FFF7AAFB1E
:10145000064604E0FFF7A6FB801B022873D800F0C5
:10146000F8FB0028F6D0D5F8940020F00400C5F869
:10147000940004E0FFF796FB801B032863D8D5F89F
:101480009400C0F3C0000028F4D128E0D5F89400FF
:1014900020F00400C5F89400FFF784FB064604E042
:1014A000FFF780FB801B03284DD8D5F89400C0F3CC
:1014B000C0000028F4D1D5F8940020F00100C5F850
:1014C0009400FFF76FFB064605E000BFFFF76AFBDD
:1014D000801B022837D800F0BCFB0028F6D120780A
:1014E000400752D5814F3868C0050DD4FFF7E0FBA7
:1014F000FFF758FB064604E0FFF754FB801B022869
:1015000021D83868C005F7D5A068012816D005286D
:10151000D5F8900018D020F00100C5F89000D5F85B
:10152000900020F0040000BFC5F89000A06841F2D0
:101530008836D8B1FFF736FB074610E0D5F89000A3
:1015400040F00100F0E789E040F00400C5F89000A9
:10155000F4E700BFFFF726FBC01BB0427ED8D5F8EA
:101560009000C0F340000028F4D00EE0FFF71AFB13
:10157000074604E0FFF716FBC01BB0426ED8D5F853
:101580009000C0F340000028F4D1207840062CD50C
:10159000A06A0028D5F8980014D040F00100C5F8E2
:1015A0009800FFF7FFFA064605E000BFFFF7FAFADA
:1015B000801B02286FD8D5F89800C0F3400000289F
:1015C000F4D012E020F00100C5F89800FFF7EAFA25
:1015D000064604E0FFF7E6FA801B02285BD8D5F840
:1015E0009800C0F340000028F4D1E06AB8B300F0DE
:1015F0000EFB0C2857D0E06A0228286820F0807083
:1016000028600BD0E86820F00300E860E8683849FB
:101610000840E860FFF7C6FA04463FE0FFF7C2FA69
:10162000064604E0FFF7BEFA801B022833D800F01C
:1016300051FB0028F6D1D4E90C010843D4E90E216E
:1016400041EA02210843216C0843616C0843E968C0
:10165000284A11400843E860286801E01BE043E0A5
:1016600040F080702860E86840F08050E860FFF744
:1016700099FA044605E000BFFFF794FA001B022820
:1016800009D800F027FB0028F6D02DE0FFF78AFAF2
:10169000001B022802D90320BDE8F08100F01AFBEC
:1016A0000028F3D120E0E868226B00F003019142AA
:1016B00018D1626B00F07001914213D1A16BC0F39D
:1016C000062291420ED1E26B00F47811914209D1C9
:1016D000226C00F06061914204D1616C00F06040C6
:1016E000884201D00120D7E70020D5E70004005848
:1016F000FFFFFEEE8C80C1112DE9F041040005D002
:101700000025A56294F85D0018B107E00120BDE84E
:10171000F08184F85C50204600F044F8022384F8FD
:101720005D302068016821F040010160E0684FF4FD
:10173000E066B04201D9002101E04FF48051B0F5DC
:10174000706F02D0B04200D0A562276B012227B98A
:10175000B04201D9236300E02263D4E901031843B6
:10176000D4E9043633431843238B03F4007318433E
:10177000E3691843236A1843A36A1843236818606F
:10178000636B606AA66918430427E36807EA164694
:1017900033431843084321684860256684F85D2078
:1017A0000020B4E710B586B0044614216846FEF761
:1017B00019FD1349206888421FD14FF0B040016ED7
:1017C00041F480510166016E01F480510591C16CB4
:1017D00041F00101C164C06C694600F00100059050
:1017E000A02000900220019000200290039005208C
:1017F00004904FF09040FFF711F906B010BD0000C3
:10180000003001402DE9F84F044690F85C000027B5
:101810001D461646894601280DD04FF0010B84F86D
:101820005CB0FFF7BFF9804694F85D00BA46012826
:1018300004D002279FE00220BDE8F88FB9F1000F25
:101840006FD0002E6DD0032084F85D00C4F860A036
:10185000C4F83890A687E687C4F840A0A4F844A04E
:10186000A4F846A0C4F850A0C4F84CA0A068B0F5F5
:10187000004F04D12068016841F480410160206874
:101880000168490603D4016841F040010160E06845
:10189000B0F5E06F606823D908B1012E1CD1A06BB0
:1018A00021680088C86006E020688168890709D53A
:1018B000A16B0988C160A06B801CA063E08F401EF3
:1018C000E08709E0FFF76EF9A0EB0800A84202D319
:1018D000681C01D046E0ADB3E08F0028E4D136E0CB
:1018E00008B1012E30D1E08F0128A06B03D9216807
:1018F0000088C8600FE021680078087314E0E08772
:1019000022E020688168890714D5E18F0129A16B45
:1019100008D90988C160A06B801CA063E08F801E7D
:10192000EDE727E009780173A06B401CA063E08F0E
:10193000401EE4E7FFF736F9A0EB0800A84202D307
:10194000681C01D00EE06DB1E08F0028D9D142466D
:101950002946204601F09CF808B120202066A068A6
:1019600010B105E0032706E02068C1688068009098
:10197000206E00B1012784F85DB084F85CA0384681
:101980005AE710B5401EB0F1807F01D3012010BD91
:101990004FF0E02460610F21601700F045FA00204D
:1019A000A06107202061002010BD90F87C10012963
:1019B00018D0012180F87C102421C0F8801050F844
:1019C000601B0A680B6823F001030B6022F00051D2
:1019D0000022426050F8603C1960202101620277C9
:1019E000104670470220704770B5044690F87C009E
:1019F00001281DD0012084F87C002420C4F8800038
:101A000020680568026822F001020260206882688E
:101A100022F060620A438260204601F0CFF920681C
:101A200005602020C4F88000002084F87C0070BD90
:101A3000022070BD70B5044690F87C0001281DD0CE
:101A4000012084F87C002420C4F880002068056808
:101A5000026822F0010202602068826822F060427F
:101A60000A438260204601F0A9F920680560202021
:101A7000C4F88000002084F87C0070BD022070BD96
:101A800010B5040003D0D4F8800010B107E00120A5
:101A900010BD002084F87C00204600F027F82420A8
:101AA000C4F880002068016821F00101016020462F
:101AB00001F04AFA0128EBD0A06A10B1204601F0EB
:101AC000AFF92068416821F4904141602068816845
:101AD00021F02A0181602068016841F00101016064
:101AE0002046BDE8104001F0FFB9000010B586B0F7
:101AF000044614216846FEF775FB144920688842A5
:101B000021D14FF0B040016E41F480410166016E79
:101B100001F480410591C16C41F00101C164C06CC8
:101B2000694600F0010005904FF4C060009002206B
:101B300001900120029000200390072004904FF0B4
:101B40009040FEF76BFF06B010BD0000003801406A
:101B50002DE9F8430446D0F880001F4616460D468E
:101B6000202851D1DDB1D6B194F87C0001284BD0AA
:101B7000012084F87C004FF00008C4F88880212000
:101B8000C4F880001834FFF70DF8A6878146E68771
:101B900054F8100C183CB0F5805F03D004E001202D
:101BA000BDE8F883206910B12E46002510E000261C
:101BB0000EE08021204601F04EFDB8B9C6B116F8FE
:101BC000010B21688862B4F85600401EA4F8560044
:101BD000B4F856004B464FF0000200970028E8D1B9
:101BE0004FF04001204601F036FD30B10320D7E729
:101BF00035F8020BC0F30800E3E72020C4F88000AA
:101C000084F87C800020CBE70220C9E7FEE74FF094
:101C1000B040806800F00C0070474FF0B0400068A2
:101C2000C0F3404070474FF0B0400068C0F38020E0
:101C300070474FF0B0414A6822F0FE4242EA00602D
:101C4000486070474FF0B040D0F89000C0F34000BB
:101C500070474FF0B040D0F89400C0F34000704798
:101C60004FF0B040006800F0F000B02800D9B0207C
:101C700070474FF0B0400068C0F3400070474FF02D
:101C8000B0414A6822F47F4242EA0020486070472F
:101C90004FF0B0410A6822F0F00202430A60704738
:101CA0004FF0B040016821F08061016070474FF053
:101CB000B040016841F08061016070474FF0B04072
:101CC0000068C0F3C06070474FF0B040C06800F0DB
:101CD000030070474FF0B0400068C0F340607047A9
:101CE00010B54FF0B04151F8883F4FF47F2202EA1F
:101CF0001014A34302EA001003430B6010BD4FF021
:101D0000B04151F8882F030C1B049A4342EA00406B
:101D10000860704730B587B014216846FEF762FA54
:101D20004FF0B040C16C41F00101C164C06C4FF094
:101D3000904500F001000590002216212846FEF78C
:101D40002CFF1620009001200024CDE901046946F3
:101D500028460394FEF762FE0820CDE90004694698
:101D600028460294FEF75AFE07B030BD124810B55F
:101D7000104901604FF48271416000214FF4E0622C
:101D8000C0E902124FF400720161C0E90512282275
:101D9000C0E9072107224162C0E90A120163082154
:101DA0004163FFF7A9FC002803D0BDE81040FEF70F
:101DB00021BE10BD0030014044000020184810B57D
:101DC000164901604FF4E1314160002181600C222D
:101DD000C160C0E904128161C16101624162816236
:101DE000FFF74EFE08B1FEF705FE00210C48FFF795
:101DF00021FE08B1FEF7FEFD00210948FFF7F4FDC2
:101E000008B1FEF7F7FD0648FFF7CFFD002803D025
:101E1000BDE81040FEF7EEBD10BD000000380140E7
:101E2000A8000020FEE770470907090E002806DA1F
:101E300000F00F0000F1E02080F8141D704700F161
:101E4000E02080F80014704730B500210A4AC3B280
:101E50000DE0002006E000BF01FB04041568401CF3
:101E600080B22B55548A8442F6D8491C89B2908A94
:101E70008842EED830BD0000340100202DE9F05F2B
:101E800081462A481E46DDF82CB0838888464B459B
:101E900002D3C188414504D2BDE8F05F24A001F01F
:101EA0000DBCB088410700D0012101EBD000203AE1
:101EB00010FB02F0F1884FF0800A484331680F1898
:101EC00000252EE0002423E0BBF1FF0F397804F059
:101ED00007022AFA02F001EA000101D009B908E07C
:101EE00081B108EB050081B209EB040080B20A9AC7
:101EF00006E008EB050081B209EB040080B25A4607
:101F000000F040FCE043400700D17F1C641CA4B2F9
:101F1000B088A042D8D83079400700D07F1C6D1C13
:101F2000ADB2F088A842CDD8BDE8F09F34010020C2
:101F300044656275673A205061696E745F447261EE
:101F4000774368617220496E7075742065786365A7
:101F500065647320746865206E6F726D616C2064B7
:101F60006973706C61792072616E67650D0A00009B
:101F70002DE9FF4F8046834885B00F46848813992A
:101F8000444502D3C088B84205D809B07E48BDE8B0
:101F9000F04F01F093BB03200024A0EB420015B2E8
:101FA0000FFA80FA01297AD0E9E0264661E000BF05
:101FB0004FF0010908EB040007EB060B02901FFA33
:101FC0008BF1CDF8009080B24B46089A00F0CEF924
:101FD000A8EB040004901FFA8BF1CDF8009080B2BA
:101FE0000123089A00F0C2F93819CDE9009081B2B6
:101FF000A8EB060B1FFA8BF00123089A00F0B6F944
:10200000381B039081B2CDF800901FFA8BF00123AA
:10201000089A00F0ABF90498A7EB060B1FFA8BF1B6
:10202000CDF8009080B20123089A00F09FF9029841
:102030001FFA8BF1CDF8009080B20123089A00F0CE
:1020400095F9039808EB060B81B2CDF800901FFAC2
:102050008BF00123089A00F089F90198CDF80090DF
:1020600081B21FFA8BF00123089A00F07FF9761CE9
:1020700036B2AE429CDDBAF1000F06DA0AEB8400FC
:10208000801D0FFA80FA08E009E0611B0AEB81006D
:102090000A306D1E0FFA80FA2DB2641C24B2AC42D5
:1020A00083DD09B0BDE8F08F08EB0400012607EBE3
:1020B000050902901FFA89F1009680B2129B089AD6
:1020C00000F054F9A8EB040003901FFA89F1009680
:1020D00080B2129B089A00F049F93819CDE90060E6
:1020E00081B2A8EB05091FFA89F0129B089A00F04B
:1020F0003DF9A7EB040B1FFA8BF11FFA89F000964C
:10210000129B089A00F032F90398A7EB05091FFA11
:1021100089F1009680B2129B089A00F027F9029884
:102120001FFA89F1009680B2129B089A00F01EF9FE
:1021300008EB05091FFA8BF11FFA89F00096129B34
:10214000089A00F013F90198009681B21FFA89F0FD
:10215000129B089A00F00AF9BAF1000F05DA0AEBAF
:102160008400801D0FFA80FA07E0611B0AEB8100F2
:102170000A306D1E0FFA80FA2DB2641C24B2AC42F4
:1021800092DD8EE734010020605201082DE9FE4FF8
:102190001D46304B16469A88824206D3DB888B4216
:1021A00003D3B24201D3AB4204D2BDE8FE4F2AA012
:1021B00001F084BA83468A46321A00D5821B9146C2
:1021C0006A1A002A00DD4A1B90464FF0FF32B345E1
:1021D00001D2012000E010460290AA4500D201225F
:1021E00009EB0804002701927F1C0E98FFB201281A
:1021F00005D10320B7FBF0F100FB1170F0B1012015
:10220000DDE90C2300905146584600F0AFF800BFBE
:10221000B8EB440F07DCB3451AD0029944440BEBEA
:1022200001001FFA80FBB9EB440FDDDBAA450FD09C
:1022300001984C4450441FFA80FAD5E701200090E1
:10224000FF22514658460D9B00F090F80027DFE72B
:10225000BDE8FE8F3401002044656275673A205066
:1022600061696E745F447261774C696E6520496E76
:102270007075742065786365656473207468652083
:102280006E6F726D616C20646973706C617920721D
:10229000616E67650D0A00002DE9FF4FADF5037D06
:1022A0008846DDE990AB814600244FF480771546DF
:1022B0002646394642A8FDF795FF394602A8FDF7A4
:1022C00091FF194842AA83884B4503D3C38802A8CB
:1022D000434512D215A001F0F1F90DF5077DBDE8D7
:1022E000F08F00BF95FBF1F301FB135395FBF1F564
:1022F00030330355641C24B200E00A21002DF1D1D3
:102300001146002C08DD031913F8013C8B55761C8F
:10231000641E36B224B2F4E7CDE900BA414648461D
:10232000869B00F0CFF9D8E7340100204465627540
:10233000673A205061696E745F4469734E756D2011
:10234000496E707574206578636565647320746880
:1023500065206E6F726D616C20646973706C617959
:102360002072616E67650D0A000000002DE9F05FC4
:10237000814626481C46884683880A9993464B45E1
:1023800002D3C288424504D2BDE8F05F20A001F02C
:1023900095B9012901D0002634E00025681E00EB24
:1023A000440718E009EB05000026A0EB040A0EE044
:1023B000BAF1000F0DD408EB0600001B09D481B25E
:1023C0001FFA8AF05A4600F0DDF9761C36B2B742A1
:1023D000EEDC6D1C2DB2AF42E4DCBDE8F09F0025C1
:1023E00009EB06077F1E09E008EB0500401E81B2DD
:1023F000B8B25A4600F0C6F96D1C2DB2A542F3DB07
:10240000761C36B2A642EADBE7E700003401002082
:1024100044656275673A205061696E745F44726109
:1024200077506F696E7420496E707574206578639B
:102430006565647320746865206E6F726D616C20D1
:10244000646973706C61792072616E67650D0A0052
:102450002DE9FE4F8246294891460C46DDE90D5292
:1024600081880C9E1F46514506D3C088A04203D3E5
:10247000494501D3B84204D2BDE8FE4F20A001F087
:102480001DB90020804662B90FE0CDE90065234602
:102490004A4619465046CDF80880FFF777FE641C7F
:1024A000A4B2BC42F1D3BDE8FE8FCDE9006523465E
:1024B0004A4619465046CDF80880FFF767FECDE939
:1024C000006552463B4621461046CDF80880FFF78E
:1024D0005DFECDE900654A46234639461046CDF8F3
:1024E0000880FFF753FECDE900653B46524619468A
:1024F0004846CDF80880FFF749FED4E734010020B4
:1025000044656275673A20496E707574206578631A
:102510006565647320746865206E6F726D616C20F0
:10252000646973706C61792072616E67650D0A0071
:102530002DE9F05F1D46904606468A46DDF82CB030
:10254000B6E07F294FF0000054D8AA884CE053230E
:102550002C68434314F813308B4244D15321484331
:10256000022101EB400004EB0009002737E00024C2
:102570002CE000BF4FEAE47004EB507020F007003D
:10258000A4EB0002BBF1FF0F99F800104FF08000A0
:1025900020FA02F001EA000101D009B907E071B1A7
:1025A0000AEB070081B2301980B20A9A05E00AEB03
:1025B000070081B2301980B25A4600F0E3F8404873
:1025C0002040072801D109F10109641C2889A04293
:1025D000D0DC287A400701D009F101097F1C688905
:1025E000B842C4DC02E0401C8242B0DC08F10108C1
:1025F000E8885CE00127AB8854E053222C68424312
:1026000014F812C08C454CD107EB4202A45C98F838
:102610000120944245D1532250430222296802EB03
:10262000400001EB0009002737E000242CE000BF48
:102630004FEAE47004EB507020F00700A4EB0002B6
:10264000BBF1FF0F99F800104FF0800020FA02F064
:1026500001EA000101D009B907E071B10AEB0700F6
:1026600081B2301980B20A9A05E00AEB070081B204
:10267000301980B25A4600F085F8114820400728EA
:1026800001D109F10109641C2889A042D0DC287A13
:10269000400701D009F101097F1C6889B842C4DCF8
:1026A00002E0401C8342A8DC288908F102080644A5
:1026B00098F8001000297FF444AFBDE8F09F0000B7
:1026C000070000802DE9FC5F80461B4889460D46C7
:1026D00081884446DDF834B01E461746A14203D334
:1026E000C1888246A94222D2BDE8FC5F134800F0AF
:1026F000E5BFB088BAF804300119994203D9F188CE
:10270000444629448DB2F188BAF806002944814232
:1027100001D944464D460C983346CDE900B02946D0
:102720002046FFF7ABFBB0887F1C204484B23A7888
:10273000002ADED1BDE8FC9F340100201C520108B4
:1027400070B50C4C049E0025206021816281A68119
:102750004E074FEAD10000D0401C6082A282E38184
:10276000258223B1B42B02D0A280E18070BDA1806C
:10277000E28070BD3401002001490860704700000C
:1027800034010020F0B4284CA388834234D3E3887A
:102790008B4231D32346E7891E895D89CFB15A2FF9
:1027A0001AD0B42F1CD0B7F5877F38D10B46281A22
:1027B000401E80B2218AD9B1012916D0022904D045
:1027C00003292CD1F11A491E8BB2281A401E80B25F
:1027D0000EE003460846EDE7711A491E8BB2E9E7A1
:1027E000301A401E83B2681AE2E7F11A491E8BB212
:1027F0009E4201D3854203D2F0BC0CA000F05EBF24
:10280000618A414301EBD30521688020002A4C5D99
:1028100003F0070220FA02F003D020434855F0BC31
:10282000704784434C55FAE73401002044656275D3
:10283000673A20457863656564696E6720646973EB
:10284000706C617920626F756E6461726965730D79
:102850000A00000070472DE9F04106460025FFF709
:102860001FFAFEF79FF9044604E0FEF79BF9001BF0
:1028700002281DD8FFF722FA0028F6D14FF0B04405
:102880002069316820F4FE4040EA0120206120697F
:10289000716820F4781008432061FFF708FAFEF70A
:1028A00081F9074606E0FEF77DF9C01B022801D931
:1028B000032507E0FFF702FA0128F4D12069316906
:1028C000084320612846BDE8F0812DE9F041064625
:1028D0000025FFF7E5F9FEF765F9044604E0FEF789
:1028E00061F9001B02281DD8FFF7E8F90028F6D18E
:1028F0004FF0B0442069316820F4FE4040EA0120E6
:1029000020612069B16820F0606008432061FFF712
:10291000CEF9FEF747F9074606E0FEF743F9C01B7C
:10292000022801D9032507E0FFF7C8F90128F4D1EF
:1029300020693169084320612846BDE8F0812DE90E
:10294000F04106460025FFF7ABF9FEF72BF90446E8
:1029500004E0FEF727F9001B02281DD8FFF7AEF9A7
:102960000028F6D14FF0B0442069316820F4FE40D1
:1029700040EA012020612069F16820F060400843AE
:102980002061FFF794F9FEF70DF9074606E0FEF720
:1029900009F9C01B022801D9032507E0FFF78EF9CA
:1029A0000128F4D120693169084320612846BDE837
:1029B000F081000070B5214A8EB00DF1100C78CA7C
:1029C0008CE8780038CA08AE86E838003CCA8DE842
:1029D0003C000024B1F5007F6A46214607D008ABD1
:1029E00053F8215085420BD352F821400BE004AB41
:1029F00053F821508542F7D2491C0429F8D302E04C
:102A0000491C0329ECD30E4E306820F00700204308
:102A10003060FEF7C7F8054608E000BFFEF7C2F8D1
:102A2000401B022802D903200EB070BD306800F0B0
:102A30000700A042F2D10020F6E70000A439000808
:102A40000040005810B50F49B02801D9C86A03E00A
:102A50003C2202EA900008584FF0B041D1F808112A
:102A6000094A01F00F0152F82110B0FBF1F4FEF712
:102A700017F901460548B4FBF0F0BDE81040FFF738
:102A800099BF0000103A0008D039000840420F00FA
:102A9000F8B515460E460B460092044600224FF448
:102AA000C05100F019F888B9334600228021204631
:102AB000009500F05CF848B9334600224FF4C0613D
:102AC0002046009500F008F8002804D0206E40F061
:102AD000200020660320F8BD2DE9F0471D4617466B
:102AE0000E4604464FF4C068DDF820900CE04645E1
:102AF00001D107B9007B681C06D0FEF753F8A0EBA4
:102B00000900A84208D23DB1206881683140B9422D
:102B1000EDD10020BDE8F0872068416821F0E00198
:102B200041606068B0F5827F0BD1A068B0F5004FBE
:102B300002D0B0F5806F04D12068016821F0400117
:102B40000160A06AB0F5005F09D12068016821F436
:102B5000005101602068016841F4005101600120CA
:102B600084F85D00002084F85C000320D2E72DE9A2
:102B7000F0411D4617460E460446DDF8188008E071
:102B8000681C06D0FEF70EF8A0EB0800A8420BD296
:102B900055B12068806836EA000030D00020B84285
:102BA000EED10020BDE8F0812068416821F0E0010D
:102BB00041606068B0F5827F0BD1A068B0F5004F2E
:102BC00002D0B0F5806F04D12068016821F0400187
:102BD0000160A06AB0F5005F09D12068016821F4A6
:102BE000005101602068016841F40051016001203A
:102BF00084F85D00002084F85C000320D2E7012007
:102C0000CDE77047FDF7DABF10B5AEB04821684692
:102C1000FDF7E8FA1C2126A8FDF7E4FA502112A8D6
:102C2000FDF7E0FA2448016821F4C06141F4007125
:102C300001600068402100F4C0602D9023200090C6
:102C40004FF4803001900012039004910024602121
:102C5000CDE90841012007900221CDE90B10202089
:102C6000CDE90D4000030F9000031190001110906A
:102C70006846FEF79BFA00B1FEE76F20269003201E
:102C8000CDE927048020CDE92A402994032126A8F4
:102C90002C94FEF70FF900B1FEE742F2010012900A
:102CA00018942494259412A8FEF70AF8002800D05E
:102CB000FEE72EB010BD00000004005870B54FF0C4
:102CC000B0400168214A01F0F00102EB91010B686C
:102CD000816811F00C021E4907D01E4D042A06D04F
:102CE0006E10082A05D00C2A05D00B601BE00D6081
:102CF00019E00E6017E0C26802F00304C268C2F374
:102D00000212521C022C1BD0032C1CD0B3FBF2F27B
:102D1000C368C3F306235343C268012404EB527211
:102D2000B3FBF2F20A608068084A00F0F000403A13
:102D300002EB90000A680068B2FBF0F0086070BD1A
:102D4000B5FBF2F2E4E7B6FBF2F2E1E7103A000875
:102D50000C0000200024F4001548002101601448F4
:102D60008030026842F4700202604FF0B0400268A6
:102D700042F0010202604FF4E022826002680D4BD3
:102D80001A400260D0F8942022F00502C0F8942086
:102D9000D0F8982022F00102C0F89820064AC260BC
:102DA0000261026822F480220260816170470000A3
:102DB00008ED00E0FBFEF6FA001004223FB514A176
:102DC000D1E90021CDE9002113A2D2E90012CDE919
:102DD0000212416EB9B1026891689268C1F3426112
:102DE000520F1DF80240E50002ACA25CB5FBF2F206
:102DF000A0F86A201DF80120615CD200B2FBF1F15D
:102E0000A0F868103FBD0121A0F86A10F8E70000A3
:102E10000101010307010000080402040801010187
:102E200090F82810C90706D001684A68C36A22F4DE
:102E300000321A434A6090F82810890706D50168C5
:102E40004A68036B22F480321A434A6090F82810D3
:102E5000490706D501684A68436B22F480221A4369
:102E60004A6090F82810090706D501684A68836B04
:102E700022F400421A434A6090F82810C90606D589
:102E800001688A68C36B22F480521A438A6090F802
:102E90002810890606D501688A68036C22F400525E
:102EA0001A438A6090F82810490611D501684A68CB
:102EB000436C22F480121A434A60416CB1F5801FC2
:102EC00006D101684A68836C22F4C0021A434A6042
:102ED00090F82810090606D501684A68C06C22F4EB
:102EE000002202434A607047F8B500260446C0F845
:102EF0008860FDF757FE0546206800686FF07E4742
:102F0000000708D52B4600224FF4001120460097F9
:102F100000F0A1FB60B92068006840070AD52B4685
:102F200000224FF480012046009700F094FB08B186
:102F30000320F8BD2020C4F88000C4F8840084F881
:102F40007C600020F8BD00002DE9F05F04460368B6
:102F500080682269E5691043626900272A431043AB
:102F6000626EFA4902431868F94D28401043186010
:102F700020684268E36822F440521A4342602268A3
:102F8000A0698A4201D0236A18439368F14D2B400F
:102F9000034393602068C26A636A22F00F021A43F7
:102FA000C262ED4B20684FF0B04298420DD1D2F88A
:102FB000882012F0030206D0012A1DD0022A19D05F
:102FC000032A1BD112E0012619E0884216D1D2F85B
:102FD00088204FF4406312F4406209D0B2F5806F4C
:102FE0000AD0B2F5006F05D09A4207D1082606E054
:102FF000002604E0022602E0042600E01026DFF8A6
:103000005CA34FF480754FF000094FF4004B8842E9
:103010006FD136B1022E22D0042E52D0082E69D1A3
:103020006FE0FEF751F84EE0012852D0022852D04E
:10303000032852D0042852D0052852D0062852D056
:10304000072852D0082852D0092854D00A2854D032
:103050000B2854D03BE000BFB1FBF0F06CE0606A9D
:10306000A8B1012817D0022817D0032817D00428A8
:1030700017D0052817D0062817D0072817D00828FA
:1030800017D0092817D00A2817D00B2817D00120ED
:10309000BAFBF0F050E00220FAE70420F8E706203F
:1030A000F6E70820F4E70A20F2E70C20F0E710200A
:1030B000EEE72020ECE74020EAE78020E8E728461A
:1030C000E6E7FEF725F80146606A0028ACD101204A
:1030D000C2E70220C0E70420BEE70620BCE70820C4
:1030E000BAE70A20B8E70C20B6E71020B4E72020A2
:1030F000B2E717E142E04020AEE78020ACE7284687
:10310000AAE7606AA8B1012822D0022822D00328A9
:1031100022D0042822D0052822D0062822D0072831
:1031200022D0082822D0092822D00A2822D00B2811
:1031300022D00120BBFBF0F0002820D06168884637
:1031400001EB4101814219D8B0EB083F16D817E0D6
:103150000220EFE70420EDE70620EBE70820E9E78F
:103160000A20E7E70C20E5E71020E3E72020E1E76D
:103170004020DFE78020DDE72846DBE7012723E268
:103180007EB3022E7AD0042E71D0082EF6D1606A5A
:10319000A8B101286CD002286BD003286AD004287B
:1031A00069D0052868D0062867D007287ED008286F
:1031B0007DD009287CD00A287BD00B2800D001259F
:1031C0002A464E46002358460021FCF7D3FF090249
:1031D00041EA106102024FEA58001018714142465C
:1031E0003BE0FFE7FDF770FF81E0012815D00228E2
:1031F00015D0032815D0042815D0052815D0062889
:1032000015D0072815D0082815D0092815D00A2868
:1032100015D00B2814D0012512E0022510E004255A
:103220000EE006250CE008250AE00A2508E00C253A
:1032300006E0102504E0202502E0402500E080257E
:103240002A4600236046FCF795FF0902626841EABE
:10325000106103025008181871410023FCF78AFF1F
:103260003F4AA0F5407191427CD987E706E03CE0F7
:1032700044E045E046E047E048E049E0606AD0B11C
:1032800001281ED002281ED003281ED004281ED0DC
:1032900005281ED006281ED007281ED008281ED0BC
:1032A00009281ED00A281ED00B2803E032E033E0A4
:1032B00034E035E000D001252A464E460023504632
:1032C00082E70225F8E70425F6E70625F4E7082556
:1032D000F2E70A25F0E70C25EEE71025ECE72025BC
:1032E000EAE74025E8E78025E6E7FDF711FF844699
:1032F000606A4E46494600288DD076E702255FE792
:1033000004255DE706255BE7082559E70A2557E709
:103310000C2555E7102553E7202551E740254FE7B9
:1033200080254DE7E0694FF6EF7858457ED1012EB4
:103330002FD0022E5ED0042E79D0082E95D1606A4F
:1033400018B3012874D0022873D00CE0008000402C
:10335000F369FFCFFFF4FF11003801400024F400AF
:10336000FFFC0F002EE1032879D0042878D005282F
:1033700077D0062876D0072875D0082874D0092879
:1033800073D00A2872D00B2800D00125BBFBF5F0C2
:103390004BE0FDF7ABFE80E0012815D0022815D0E8
:1033A000032815D0042815D0052815D0062815D0D7
:1033B000072815D0082815D0092815D00A2815D0B7
:1033C0000B2814D0012512E0022510E004250EE0A0
:1033D00006250CE008250AE00A2508E00C2506E091
:1033E000102504E0202502E0402500E08025B1FB07
:1033F000F5F01AE0606AA8B1012838D0022838D068
:10340000032838D0042838D0052838D0062838D0EA
:10341000072838D0082838D0092838D00A2838D0CA
:103420000B2800D00125BAFBF5F003E04EE032E0B6
:1034300038E039E04100606801EB5001B1FBF0F089
:1034400080B2A0F1100141453FF60FAF4FF6F07189
:103450000140C0F3420001432068C160B4E025E0B0
:1034600026E027E028E029E02AE02BE02CE00225F6
:10347000D9E70425D7E70625D5E70825D3E70A25A8
:10348000D1E70C25CFE71025CDE72025CBE7402558
:10349000C9E78025C7E7FDF73BFE0146606A0028C3
:1034A00090D079E7022571E704256FE706256DE7DF
:1034B00008256BE70A2569E70C2567E7102565E70E
:1034C000202563E7402561E780255FE7012E22D0B4
:1034D000022E51D0042E7DD0082E7FF4C6AE606A35
:1034E000A8B1012877D0022876D0032875D0042807
:1034F00074D0052873D0062872D0072871D0082808
:1035000070D009286FD00A286ED00B2800D0012572
:10351000BBFBF5F14BE0FDF7E9FD83E0012815D099
:10352000022815D0032815D0042815D0052815D059
:10353000062815D0072815D0082815D0092815D039
:103540000A2815D00B2814D0012512E0022510E01E
:1035500004250EE006250CE008250AE00A2508E00F
:103560000C2506E0102504E0202502E0402500E0BF
:103570008025B1FBF5F11AE0606AA8B101283BD0C3
:1035800002283BD003283BD004283BD005283BD061
:1035900006283BD007283BD008283BD009283BD041
:1035A0000A283BD00B2800D00125BAFBF5F1606852
:1035B00001EB5001B1FBF0F080B2A0F110014145E8
:1035C0003FF653AE2168C8600120A4F86A0024F8D1
:1035D000680F0AE024E02AE02BE02CE02DE02EE04A
:1035E0002FE030E031E032E033E0C4F804903846B8
:1035F000C4F80890BDE8F09F0225D6E70425D4E77B
:103600000625D2E70825D0E70A25CEE70C25CCE72A
:103610001025CAE72025C8E74025C6E78025C4E76E
:10362000FDF776FD0146606A00288DD076E7022519
:103630006EE704256CE706256AE7082568E70A2592
:1036400066E70C2564E7102562E7202560E7402542
:103650005EE780255CE72DE9F041984617460E4667
:103660000446069D08E0681C06D0FDF79BFAA0EB17
:103670000800A8420BD855B12068C06936EA00009E
:1036800019D00020B842EED00020BDE8F0812068BB
:10369000016821F4D07101602068816821F0010186
:1036A00081602020C4F88000C4F88400002084F8E1
:1036B0007C000320E9E70120E4E7FEE70FB4054BB7
:1036C00010B503A9044A029800F018F810BC5DF880
:1036D00014FB0000B53800083800002002E008C8DC
:1036E000121F08C1002AFAD170477047002001E07C
:1036F00001C1121F002AFBD1704700002DE9FF4FC6
:103700008BB09A460F460546002606E025280BD0CA
:1037100052460D9990476D1C761C28780028F5D1EB
:103720000FB03046BDE8F08F0024A046012260496A
:1037300000E0044315F8013F203B02FA03F0084281
:10374000F7D128782E2817D115F8010F44F004047A
:103750002A280ED06FF02F022878A0F13001092915
:103760000AD808EB880102EB410100EB01086D1C4F
:10377000F2E757F8048B6D1C287869283ED006DCE8
:103780000028CDD063280BD0642804D136E07328FC
:1037900010D075284BD052460D999047761C85E085
:1037A00017F8040B8DF8000000208DF80100E946A1
:1037B000012003E057F8049B4FF0FF3061074FF002
:1037C000000401D40AE0641C44450DDA8442FADBAB
:1037D00019F804100029F6D106E0641C8442FCDBD1
:1037E00019F804100029F8D1264404E019F8010B57
:1037F00052460D999047641EF8D257E001CF4FF022
:103800000A0B002802DA40422D2102E0210504D5EE
:103810002B218DF82410012103E0E10705D02021A0
:10382000F7E70DF1200908910CE00021F9E701CF3D
:103830004FF00A0BF9E75946FCF7DFFC01F13002C3
:1038400009F8012D0028F6D1ADEB090000F1200B9D
:10385000600701D44FF00108D84502DDA8EB0B004A
:1038600000E000208046002406E009A85246005DE2
:103870000D999047641C761C08988442F5DB04E09F
:10388000302052460D999047761CB8F10001A8F1FE
:103890000108F5DC05E019F8010B52460D99904737
:1038A000761CBBF10001ABF1010BF4DC6D1C34E7BD
:1038B0000928010013B54FF6FF730122694602483B
:1038C000FEF746F900981CBDA800002010B500289E
:1038D00021D0114B0022001F196803E0814203D858
:1038E0000A4649680029F9D152B11368841A9C42EA
:1038F00004D1006818441060104602E0506000E0F7
:10390000186039B102680B1A934203D10B681A444C
:1039100002604968416010BD3C000020FDF756F987
:10392000FFF772F9FEF7F6F9FEF748FAFEF71EFA0E
:10393000FCF792FEFEE70000F0B50B30154D20F0CD
:1039400007010024144A0FE003688B420BD38B421B
:1039500005D95E1A43184768C3E9006700E0436869
:10396000136002C004E0021D10680028ECD120465C
:10397000002802D1286808B10020F0BD064A074897
:103980001060074A121A22F00702C0E90024012041
:103990002860D7E7400000203C00002054010020B0
:1039A00050910020120000002400000036000000AA
:1039B00040000000060000000C00000010000000A5
:1039C00000000000010000000200000003000000F1
:1039D00001000000030000000500000001000000DD
:1039E00001000000060000000A00000020000000A6
:1039F00002000000040000000800000010000000A9
:103A000040000000800000000001000000020000F3
:103A1000A0860100400D0300801A060000350C004E
:103A200040420F0080841E0000093D0000127A0011
:103A30000024F40000366E010048E801006CDC024E
:103A40000000000000000000000000000000000076
:103A50000000000000000000000000000000000066
:103A6000010000000200000003000000040000004C
:103A70000000000000000000000000000010101016
:103A80001010000010000000006C4848000000000A
:103A900000000000001414287C287C2850500000EE
:103AA00000103840403848701010000000205020AE
:103AB0000C70081408000000000000182020544872
:103AC0003400000000101010100000000000000082
:103AD0000008081010101010100808000020201016
:103AE000101010101020200000107C10282800005A
:103AF000000000000000101010FE10101000000068
:103B0000000000000000001810302000000000003D
:103B1000007C0000000000000000000000000030F9
:103B200030000000000404080810102020400000AD
:103B3000003844444444444438000000003010102D
:103B4000101010107C0000000038440408102044BD
:103B50007C000000003844041804044438000000CD
:103B6000000C141424447E040E000000003C2020AD
:103B70003804044438000000001C204078444444C9
:103B800038000000007C4404080808101000000001
:103B90000038444438444444380000000038444469
:103BA000443C040870000000000000303000003089
:103BB000300000000000001818000018302000003D
:103BC00000000C10608060100C000000000000007D
:103BD0007C007C00000000000000C02018041820B9
:103BE000C00000000000182404081000300000008D
:103BF0003844444C54544C404438000000301028A1
:103C000028287C44EE00000000F8444478444444F2
:103C1000F8000000003C44404040404438000000B0
:103C200000F0484444444448F000000000FC445084
:103C300070504044FC000000007E222838282020DC
:103C400070000000003C4440404E444438000000F6
:103C500000EE44447C444444EE000000007C10101C
:103C6000101010107C000000003C0808084848486C
:103C70003000000000EE444850704844E600000068
:103C800000702020202024247C00000000EE6C6CBA
:103C900054544444EE00000000EE64645454544C08
:103CA000EC00000000384444444444443800000020
:103CB0000078242424382020700000000038444478
:103CC00044444444381C000000F8444444784844C8
:103CD000E200000000344C40380404645800000046
:103CE00000FE9210101010103800000000EE444446
:103CF000444444443800000000EE4444282828107E
:103D00001000000000EE44445454545428000000B5
:103D100000C6442810102844C600000000EE4428C5
:103D20002810101038000000007C440810102044B7
:103D30007C00000000382020202020202020380097
:103D40000040202020101008080800000038080853
:103D5000080808080808380000101028440000006F
:103D6000000000000000000000000000000000FE55
:103D700000100800000000000000000000000038F3
:103D8000443C44443E00000000C040586444444465
:103D9000F80000000000003C4440404438000000AF
:103DA000000C04344C4444443E0000000000003841
:103DB000447C40403C000000001C207C202020204F
:103DC0007C000000000000364C4444443C043800B1
:103DD00000C0405864444444EE00000000100070ED
:103DE000101010107C00000000100078080808086F
:103DF0000808700000C0405C48705048DC000000BB
:103E000000301010101010107C000000000000E8BE
:103E100054545454FE000000000000D8644444444C
:103E2000EE00000000000038444444443800000024
:103E3000000000D8644444447840E00000000036AC
:103E40004C4444443C040E000000006C3020202010
:103E50007C0000000000003C44380444780000006E
:103E60000000207C202020221C000000000000CC4C
:103E70004444444C36000000000000EE444428282E
:103E800010000000000000EE4454545428000000CC
:103E9000000000CC48303048CC000000000000EEAC
:103EA00044242818101078000000007C481020449A
:103EB0007C000000000810101010201010100800E6
:103EC0000010101010101010101000000020101022
:103ED00010100810101020000000000000245800EE
:103EE00000000000C4E300000000000000001DC04E
:103EF0001D803BFF3B073F777E76F870FBFEFBFEA5
:103F00003F773F773E73387038703BE00000000029
:103F100000000000000000000000000000000000A1
:103F20000000000000000000000000000000000091
:103F30000000000000000000000000000000000081
:103F40000000000000000000000000000000000071
:103F50000000000000000000000000000000000061
:103F60000000000000000000000000000000000051
:103F70000000000000000000000000000000000041
:103F800000000000000000000000BAC300000000B4
:103F900000000000300073FF700FFE1E7E3C6E3884
:103FA000EE30EFFFFC307C3038303E307E30E03099
:103FB000C1F0000000000000000000000000000050
:103FC00000000000000000000000000000000000F1
:103FD00000000000000000000000000000000000E1
:103FE00000000000000000000000000000000000D1
:103FF00000000000000000000000000000000000C1
:1040000000000000000000000000000000000000B0
:1040100000000000000000000000000000000000A0
:104020000000000000000000000000000000000090
:10403000CAF70000000000000000300E300E3FEE16
:1040400030EEFCFF76CE77FE7BFEFFFEF3DEF3CE96
:1040500037EE3E6E3C0E303E0000000000000000D7
:104060000000000000000000000000000000000050
:104070000000000000000000000000000000000040
:104080000000000000000000000000000000000030
:104090000000000000000000000000000000000020
:1040A0000000000000000000000000000000000010
:1040B0000000000000000000000000000000000000
:1040C00000000000000000000000000000000000F0
:1040D000000000000000DDAE000000000000000055
:1040E0000670FFFF3E7038007FFFE000FFFC3B8C56
:1040F00039CCFFFF739C71DC7FFF001C01F80000CE
:1041000000000000000000000000000000000000AF
:10411000000000000000000000000000000000009F
:10412000000000000000000000000000000000008F
:10413000000000000000000000000000000000007F
:10414000000000000000000000000000000000006F
:10415000000000000000000000000000000000005F
:10416000000000000000000000000000000000004F
:10417000000000000000000000000000C5C90000B1
:10418000000000000000E01FFFF03E000E1FCFFB0C
:10419000FFF83FFF0FFF7FD87FDC6FCEEDFFFDF70D
:1041A000F9C0000000000000000000000000000056
:1041B00000000000000000000000000000000000FF
:1041C00000000000000000000000000000000000EF
:1041D00000000000000000000000000000000000DF
:1041E00000000000000000000000000000000000CF
:1041F00000000000000000000000000000000000BF
:1042000000000000000000000000000000000000AE
:10421000000000000000000000000000000000009E
:10422000000061000000000000000000000000002D
:10423000000000003E00670007800F807F80E38061
:10424000E780E7807F8000000000000000000000A1
:10425000000000000000000000000000000000005E
:10426000000000000000000000000000000000004E
:10427000000000000000000000000000000000003E
:10428000000000000000000000000000000000002E
:10429000000000000000000000000000000000001E
:1042A000000000000000000000000000000000000E
:1042B00000000000000000000000000000000000FE
:1042C000000000000000000062000000000000008C
:1042D000000070007000700070007F007B8071C073
:1042E00071C071C071C071C07B807F000000000090
:1042F00000000000000000000000000000000000BE
:1043000000000000000000000000000000000000AD
:10431000000000000000000000000000000000009D
:10432000000000000000000000000000000000008D
:10433000000000000000000000000000000000007D
:10434000000000000000000000000000000000006D
:10435000000000000000000000000000000000005D
:1043600000000000000000000000000000006300EA
:10437000000000000000000000000000000000003D
:104380003F007300F000E000E000E000F000730088
:104390003F000000000000000000000000000000DE
:1043A000000000000000000000000000000000000D
:1043B00000000000000000000000000000000000FD
:1043C00000000000000000000000000000000000ED
:1043D00000000000000000000000000000000000DD
:1043E00000000000000000000000000000000000CD
:1043F00000000000000000000000000000000000BD
:1044000000000000000000000000000000000000AC
:10441000000000004100000000000000000000005B
:104420000E001F001F001F003B803B8071807FC07B
:1044300071C0E0E0E0E0E0E000000000000000000B
:10444000000000000000000000000000000000006C
:10445000000000000000000000000000000000005C
:10446000000000000000000000000000000000004C
:10447000000000000000000000000000000000003C
:10448000000000000000000000000000000000002C
:10449000000000000000000000000000000000001C
:1044A000000000000000000000000000000000000C
:1044B00000000000000000000000000000000000FC
:1044C00000000000000000000000000000000000EC
:1044D0000000000000000000000000000C000C00C4
:1044E0000C000C000C000C000C000C0000000C0078
:1044F00000000000000000000000000000001DC0DF
:104500001DC0088008800880000000000000000036
:104510000000000000000000000000000D800D8081
:104520000D800D803FC01B003FC01B001B001B0007
:104530001B00000000000000000004001F8031800C
:10454000318038001E000F000380318031803F0031
:104550000400040000000000000000001800240017
:10456000240018C007801E003180024002400180F4
:1045700000000000000000000000000000000F002C
:104580001800180018000C001D80370033001D8033
:104590000000000000000000000000000000070014
:1045A00007000200020002000000000000000000FE
:1045B00000000000000000000000000003000300F5
:1045C00006000E000C000C000C000C000E00060093
:1045D00003000300000000000000000018001800A5
:1045E0000C000600060006000600060006000C008F
:1045F0001C0018000000000000000000060006007B
:104600003FC03FC00F001F80198000000000000065
:10461000000000000000000000000000000000009A
:104620000400040004003F800400040004000000B3
:10463000000000000000000000000000000000007A
:104640000000000000000000000000000600040060
:104650000C0008000800000000000000000000003E
:104660000000000000003F8000000000000000008B
:10467000000000000000000000000000000000003A
:104680000000000000000000000000000C000C0012
:104690000000000000000000000000C000C0018019
:1046A00001800300030006000C000C001800180035
:1046B0003000300000000000000000000E001B0071
:1046C0003180318031803180318031801B000E009B
:1046D00000000000000000000000000006003E0096
:1046E00006000600060006000600060006003FC0A1
:1046F0000000000000000000000000000F00198012
:1047000031803180030006000C00180030003F802B
:104710000000000000000000000000003F00618079
:10472000018003001F0003800180018061803F0041
:10473000000000000000000000000000070007006B
:104740000F000B001B00130033003F8003000F809D
:104750000000000000000000000000001F801800A2
:10476000180018001F0011800180018021801F00A7
:1047700000000000000000000000000007801C0096
:1047800018003000370039803180318019800F00E7
:104790000000000000000000000000007F00430057
:1047A000030006000600060006000C000C000C00CA
:1047B0000000000000000000000000001F00318029
:1047C000318031801F0031803180318031801F0085
:1047D0000000000000000000000000001E00330088
:1047E0003180318033801D800180030007003C0050
:1047F00000000000000000000000000000000000B9
:1048000000000C000C000000000000000C000C0078
:104810000000000000000000000000000000000098
:104820000000030003000000000000000600040078
:10483000080008000000000000000000000000C0A8
:10484000030004001800600018000400030000C00A
:104850000000000000000000000000000000000058
:10486000000000007FC000007FC0000000000000CA
:1048700000000000000000000000000000006000D8
:1048800018000400030000C00300040018006000CA
:1048900000000000000000000000000000001F00F9
:1048A00031803180018007000C000C0000000C00FA
:1048B0000000000000000000000000000E001100D9
:1048C00021002100270029002900270020001100D5
:1048D0000E000000000000000000000000003F008B
:1048E0000F000900198019801F8030C030C079E0A6
:1048F00000000000000000000000000000007F0039
:104900003180318031803F003180318031807F00C3
:1049100000000000000000000000000000001F4038
:1049200030C06040600060006000604030801F0068
:1049300000000000000000000000000000007F00F8
:10494000318030C030C030C030C030C031807F00D6
:1049500000000000000000000000000000007F8058
:104960003080308032003E003200308030807F80E6
:1049700000000000000000000000000000007FC0F8
:104980003040304032003E003200300030007C00C9
:1049900000000000000000000000000000001E8079
:1049A000318060806000600067C0618031801F00DE
:1049B00000000000000000000000000000007BC0BC
:1049C0003180318031803F803180318031807BC0C7
:1049D00000000000000000000000000000003FC0D8
:1049E00006000600060006000600060006003FC09E
:1049F00000000000000000000000000000001FC0D8
:104A000003000300030003006300630063003E0033
:104A100000000000000000000000000000007BC05B
:104A20003180330036003C003E003300318079C0D5
:104A300000000000000000000000000000007E00F8
:104A400018001800180018001840184018407FC0BF
:104A50000000000000000000000000000000E0E096
:104A600060C071C07BC06AC06EC064C060C0FBE043
:104A7000000000000000000000000000000073C003
:104A8000318039803D803580378033803180798036
:104A900000000000000000000000000000001F00F7
:104AA000318060C060C060C060C060C031801F00E5
:104AB00000000000000000000000000000007F0077
:104AC00031803180318031803F00300030007E0005
:104AD00000000000000000000000000000001F00B7
:104AE000318060C060C060C060C060C031801F00A5
:104AF0000CC01F80000000000000000000007F00CC
:104B00003180318031803E003300318031807CE063
:104B100000000000000000000000000000001F80F6
:104B20003180318038001F000380318031803F00A8
:104B300000000000000000000000000000007F8076
:104B40004C804C804C800C000C000C000C003F0092
:104B500000000000000000000000000000007BC01A
:104B600031803180318031803180318031801F004F
:104B700000000000000000000000000000007BC0FA
:104B8000318031801B001B001B000A000E000E004C
:104B90000000000000000000000000000000FBE03A
:104BA00060C064C06EC06EC02A803B803B80318094
:104BB00000000000000000000000000000007BC0BA
:104BC00031801B000E000E000E001B0031807BC0E8
:104BD000000000000000000000000000000079E07C
:104BE00030C019800F0006000600060006001F8076
:104BF00000000000000000000000000000003F80F6
:104C000021802300060004000C00188030803F80C3
:104C10000000000000000000000000000780060007
:104C20000600060006000600060006000600060054
:104C3000060007800000000000003000300018006F
:104C400018000C000C000600030003000180018026
:104C500000C000C000000000000000001E000600B0
:104C60000600060006000600060006000600060014
:104C700006001E0000000000000004000A000A00F8
:104C800011002080208000000000000000000000D3
:104C90000000000000000000000000000000000014
:104CA0000000000000000000000000000000000004
:104CB0000000000000000000FFE008000400020007
:104CC00000000000000000000000000000000000E4
:104CD00000000000000000000000000000000000D4
:104CE00000001F00018001801F80318033801DC0C3
:104CF0000000000000000000000000007000300014
:104D000030003700398030C030C030C03980770083
:104D10000000000000000000000000000000000093
:104D200000001E80318060806000608031801F0044
:104D3000000000000000000000000000038001806F
:104D400001801D80338061806180618033801DC05F
:104D50000000000000000000000000000000000053
:104D600000001F00318060C07FC0600030C01F8025
:104D700000000000000000000000000007E00C0040
:104D80000C003F800C000C000C000C000C003F805D
:104D90000000000000000000000000000000000013
:104DA00000001DC0338061806180618033801D8080
:104DB000018001801F000000000000007000300032
:104DC00030003700398031803180318031807BC0C4
:104DD00000000000000000000000000006000600C7
:104DE00000001E00060006000600060006003FC088
:104DF00000000000000000000000000006000600A7
:104E000000003F0003000300030003000300030051
:104E1000030003003E0000000000000070003000AE
:104E20003000378036003C003C003600330077C04D
:104E30000000000000000000000000001E0006004E
:104E400006000600060006000600060006003FC039
:104E50000000000000000000000000000000000052
:104E600000007F8036C036C036C036C036C076E01F
:104E70000000000000000000000000000000000032
:104E800000007700398031803180318031807BC0F3
:104E90000000000000000000000000000000000012
:104EA00000001F00318060C060C060C031801F0002
:104EB00000000000000000000000000000000000F2
:104EC00000007700398030C030C030C039803700F2
:104ED000300030007C0000000000000000000000F6
:104EE00000001DC0338061806180618033801D803F
:104EF0000180018007C000000000000000000000E9
:104F000000007B801CC018001800180018007F00EB
:104F10000000000000000000000000000000000091
:104F200000001F8031803C001F00038031803F0063
:104F30000000000000000000000000001800180041
:104F400018007F00180018001800180018800F00C3
:104F50000000000000000000000000000000000051
:104F600000007380318031803180318033801DC0FA
:104F70000000000000000000000000000000000031
:104F800000007BC0318031801B001B000E000E0032
:104F90000000000000000000000000000000000011
:104FA0000000F1E060C064C06EC03B803B80318097
:104FB00000000000000000000000000000000000F1
:104FC00000007BC01B000E000E000E001B007BC00B
:104FD00000000000000000000000000000000000D1
:104FE000000079E030C0198019800B000F00060026
:104FF00006000C003E000000000000000000000061
:1050000000003F80218003000E00180030803F80A8
:1050100000000000000000000000000006000C007E
:105020000C000C000C000C0018000C000C000C0014
:105030000C00060000000000000000000600060052
:105040000600060006000600060006000600060030
:105050000600060000000000000000000C00060032
:105060000600060006000600030006000600060013
:1050700006000C000000000000000000000000001E
:105080000000000018002480030000000000000061
:1050900000000000000000000000C4E30000000069
:1050A0000000000000000000000000000000000000
:1050B000000000000000000001C1C00001E3E000AA
:1050C00003E3C00003C7800003C7FFFF078FFFFF94
:1050D000078F000F0F1E001E0F3C1E1E1F3C1E3EA2
:1050E0001F181E3C3F001E1C7F001E007F079E7085
:1050F000FF079EF0EF0F9E786F0F1E780F0F1E3C7C
:105100000F1E1E3C0F1E1E1E0F3C1E1E0F3C1E1FA0
:105110000F7C1E0F0F781E0E0F001E000F001E00CA
:105120000F003C000F07FC000F07F8000000000014
:10513000000000000000000000000000000000006F
:10514000BAC30000000000000000000000000000E2
:10515000000000000000000000000F0000000F0031
:1051600000000F07FFFE0F07FFFE0F00003E1E00AE
:1051700000FCFFF801F0FFF803E01E7807C01E787E
:105180000F803C780F003C780F003C780F003C7893
:105190000F003C7FFFFF78FFFFFF78F00F0078F0F3
:1051A0000F003DE00F001FE00F000FE00F0007C0F1
:1051B0000F0007E00F0007F00F000FF80F001E7C34
:1051C0000F003C380F0078000F00F003FF00600173
:1051D000FE000000000000000000000000000000D1
:1051E000000000000000CEA200000000000000004F
:1051F00000000000000000000000000000000000AF
:10520000030701E0078701E0070701C00FF779C036
:105210001EF77BC01EF77B803CF77BFF78F77BFF98
:10522000F8F77F9EF7FFFF9E67FFFF9E07007F9CBA
:105230000F000F9C1E001F9C1E7FFFBC3E7FF3FCD7
:105240003E0003FC7E0001F8FE0001F8FE7FE1F85D
:10525000DE7FE1F81E78E0F01E78EEF01E78FFF0B9
:105260001E78FDF81E79FBFC1EF1F7BC1EF0EF9EC8
:105270001FE00F0F1EC01E0F1E000C0700000000D5
:10528000000000000000000000000000C8ED000069
:10529000000000000000000000000000000000000E
:1052A000000003C07800078078000780780007803E
:1052B000F0000F00F000FFFFFFFFFFFFFFFF1E03E6
:1052C000C01F1E03C01E1FE78F3E3DE78F3C3DEF12
:1052D0000F7C3DE70F7879E00F0079E00E007FFE4C
:1052E0000E007FFE1F0001E01F0001E01F0001E033
:1052F0001F8001E01F8001E03F8001FF3FC00FFFE2
:105300007BC0FFF079E0F9E0F1F001E1F0F001E3BA
:10531000E0F801E7C07C01FF803F01FF001F01ECC6
:10532000000E00000000000000000000000000006F
:105330000000D1C5000000000000000000000000D7
:1053400000000000000000000000000000007700E6
:105350000000FF007FFCF7807FFDE3C001C1E3C0D8
:1053600001C3C1803DC7FFFF39C7FFFF39CF83802D
:1053700079DF838079FF838079DF838071C38380C5
:105380007FFFFFFE7FFFFFFE03C3838007C3838091
:1053900007C383800FC383800FC383801FC3FFFEB7
:1053A0001DC3FFFE3DC3838079C38380F1C3838027
:1053B000F1C3838061C3838001C3FFFF03C3FFFF89
:1053C0001FC380001F838000000000000000000059
:1053D0000000000000000000BADA00000000000039
:1053E00000000000000000000000000000000000BD
:1053F000000000000000000000001FFFFFFC1FFF76
:10540000FFFC1E03C03C1EC3C73C1FE3C7BC1EF30A
:10541000CF3C1EFBDF3C1E7BDE3C1E33DC3C1E0310
:10542000C03C1FFFFFFC1FFFFFFC1E03C03C00032E
:10543000C0000003C0003FFFFFFC3FFFFFFC000374
:10544000C0000003C0000003C000FFFFFFFFFFFF1C
:10545000FFFF000000001C3870703E78F8F83C7CBC
:10546000787C7C3C3C3EF83E3C1FF01C180E000053
:105470000000000000000000000000000000B4CBAD
:10548000000000000000000000000000000000001C
:1054900000000000000000000000000000783C0058
:1054A00000783C0000783C0000783C0000783C002C
:1054B00000783C0C3C783C1E3C783C3F3C783CF807
:1054C0003C7FFDF03C7FFFE03C783F803C783E0035
:1054D0003C783C003C783C003C783C003C783C000C
:1054E0003C783C003C783C003C783C0E3C783C0FDF
:1054F0003C783C0F3C79FC0F3C7FFC0F3FFF3C0F9E
:105500003FF03E1EFF001FFEF0000FFC00000000F9
:10551000000000000000000000000000000000008B
:1055200000000000D7D600000000000000000000CE
:1055300000000000000000000000000380000007E1
:1055400080000003C0000003E0000001E0007FFFD6
:10555000FFFE7FFFFFFE7800001E7800001E78002F
:10556000001E7800001E7BFFFFDE03FFFFC000006F
:105570000FC000003F0000007E000001F8000001A5
:10558000E0000001E000FFFFFFFFFFFFFFFF000161
:10559000E0000001E0000001E0000001E000000187
:1055A000E0000001E0000003E0000003C00000FF95
:1055B000C00000FF800000000000000000000000AC
:1055C00000000000000000000000CCE5000000002A
:1055D00000000000000000000000000000000000CB
:1055E000000000000000000003C03C0003C03C00BD
:1055F00003C03C0007803C0007803C0007803C0063
:105600000FFFFFFF0FFFFFFF1F01FE001F01FF0045
:105610003F01FF003F03FF007F03FF807F07BF8044
:10562000FF07BFC0EF0F3DC0CF0F3DE00F1E3DE0B5
:105630000F1E3CF00F3C3C780F7C3C7C0FF83C3E4E
:105640000FF7FFDF0FE7FFCF0FC03C060F003C0056
:105650000F003C000F003C000F003C000F003C001E
:10566000000000000000000000000000000000003A
:10567000CFC2000000000000000000000000000099
:10568000000000000000000000000000000000001A
:105690000000FFFFFFFFFFFFFFFF000F8000000F74
:1056A0008000000F8000000F8000000F8000000FBE
:1056B0008000000FE000000FF800000FFC00000F5A
:1056C000BF00000F9F80000F87E0000F83F0000FE6
:1056D00080F8000F807C000F8038000F8000000FE2
:1056E0008000000F8000000F8000000F8000000F7E
:1056F0008000000F8000000F8000000F8000000F6E
:105700008000000000000000000000000000000019
:10571000000000000000B6D40000000000000000FF
:105720000000000000000000000000000000000079
:105730000000000000000078000000780000007801
:105740007FFC00787FFC0078003C0078003FFFFF82
:10575000303FFFFF783C00783C3800783E78007896
:105760001E78C0780F79E0780FF0F07807F0F878BD
:1057700003F0787801E03C7803F03E7803F0187885
:1057800007F8007807FC00780F3E00781F1E0078AD
:105790003E1F00787C0E00F8F80000F0F0003FF0AB
:1057A00060003FE00000000000000000000000007A
:1057B000000000000000000000000000D3A6000070
:1057C00000000000000000000000000000000000D9
:1057D00000000001C0000003E0000001E000000143
:1057E000F0000000F0001FFFFFFF1FFFFFFF1E0083
:1057F00000001E0000001E01E0781E01E0781EE19E
:10580000E0781FF1F0F81EF0F0F01EF0F0F01EF856
:10581000F0F01E78F1F01E78F9E01E7879E01E7C39
:105820007BE01E3C7BC01E3C7BC01E3C7BC03C3EE4
:1058300007803C1C07803C0007803C000F0078007C
:105840000F007BFFFFFFF3FFFFFFF0000000600091
:105850000000000000000000000000000000000048
:105860000000B5C4000000000000000000000000BF
:1058700000000000000000000000000003803C0069
:1058800007C03E0007803C0007807C000F007800C6
:105890007FFE7FFE7FFEFFFE781EF01E781FE01E5B
:1058A000781FE01E781FC01E781FC01E781FF01ED4
:1058B000781EF81E781E7C1E7FFE3C1E7FFE1E1E7C
:1058C000781E1F1E781E0F9E781E079E781E071ECC
:1058D000781E001E781E001E781E003E781E003CBA
:1058E000781E003C7FFE003C7FFE007C781E3FF867
:1058F000781E3FF0000000000000000000000000E3
:105900000000000000000000B5E3000000000000FF
:105910000000000000000000000000000000000087
:1059200000000003C0000003C0000003C00000032B
:10593000C0000003FFFF0003FFFF0003C0000003DF
:10594000C0000003C0000003C0000FFFFFF80FFFFE
:10595000FFF80F0000780F0000780F0000780F00AC
:1059600000780F0000780F0000780FFFFFF80FFF9E
:10597000FFF80F000078000000000C3838301E7C63
:1059800078783E3C78783C3C3C3C7C3E3C3EF81E83
:105990003C1EF01E1E1F701E1C0E000000000000AA
:1059A0000000000000000000000000000000D5F32F
:1059B00000000000000000000000000000000000E7
:1059C000000000000000000000003C000000780023
:1059D0007FF078007FF0780079FFFFFF79FFFFFF0D
:1059E00079E1E00079E1E0007BC1EF807BC3CF800B
:1059F0007BC3CF807F87CF807F878F807F878F809B
:105A00007BCF0F807BCFFFFE79EFFFFE79E00F8029
:105A100078E00F8078F00F8078F00F8078F00F80BA
:105A200078FFFFFF79FFFFFF7FE00F807FC00F80CF
:105A300078000F8078000F8078000F8078000F804A
:105A400078000F800000000000000000000000004F
:105A500000000000CEAA00000000000000000000CE
:105A60000000000000000000000000000000000036
:105A70000000000780000E0780001F0780000F87CE
:105A8000800007C7800001E7800000C78000000792
:105A900080007FFFFFFC7FFFFFFC0007803C000FC2
:105AA000803C000F003C000F003C000F603C001FDA
:105AB000F03C001E783C003E3C3C003C3E3C007C00
:105AC0001F3C00780F3C00F8063C01F0003C03E06E
:105AD000007C07C0007C0F8000781F0000F83E00AB
